{
  "address": "0x0eD8fa0aE29b6dF59f755F285667DFf5DF97bd6b",
  "abi": [
    {
      "inputs": [
        {
          "internalType": "address",
          "name": "_owner",
          "type": "address"
        }
      ],
      "stateMutability": "nonpayable",
      "type": "constructor"
    },
    {
      "inputs": [],
      "name": "INSUFFICIENT_RECIPIENT_COUNT",
      "type": "error"
    },
    {
      "inputs": [],
      "name": "INSUFFICIENT_SPLIT_AMOUNT",
      "type": "error"
    },
    {
      "inputs": [],
      "name": "INVALID_INPUT",
      "type": "error"
    },
    {
      "inputs": [],
      "name": "INVALID_RECIPIENT",
      "type": "error"
    },
    {
      "inputs": [],
      "name": "NOT_ADMIN",
      "type": "error"
    },
    {
      "inputs": [],
      "name": "TRANSFER_FAILED",
      "type": "error"
    },
    {
      "anonymous": false,
      "inputs": [
        {
          "indexed": true,
          "internalType": "address",
          "name": "sender",
          "type": "address"
        },
        {
          "indexed": false,
          "internalType": "address payable[]",
          "name": "recipients",
          "type": "address[]"
        },
        {
          "indexed": false,
          "internalType": "uint256[]",
          "name": "amounts",
          "type": "uint256[]"
        },
        {
          "indexed": false,
          "internalType": "contract IERC20",
          "name": "token",
          "type": "address"
        }
      ],
      "name": "Erc20Split",
      "type": "event"
    },
    {
      "anonymous": false,
      "inputs": [
        {
          "indexed": true,
          "internalType": "address",
          "name": "sender",
          "type": "address"
        },
        {
          "indexed": false,
          "internalType": "uint256",
          "name": "totalAmount",
          "type": "uint256"
        },
        {
          "indexed": false,
          "internalType": "address payable[]",
          "name": "recipients",
          "type": "address[]"
        },
        {
          "indexed": false,
          "internalType": "contract IERC20",
          "name": "token",
          "type": "address"
        }
      ],
      "name": "Erc20SplitEqual",
      "type": "event"
    },
    {
      "anonymous": false,
      "inputs": [
        {
          "indexed": true,
          "internalType": "address",
          "name": "sender",
          "type": "address"
        },
        {
          "indexed": false,
          "internalType": "uint256",
          "name": "totalAmount",
          "type": "uint256"
        },
        {
          "indexed": false,
          "internalType": "address payable[]",
          "name": "recipients",
          "type": "address[]"
        },
        {
          "indexed": false,
          "internalType": "uint256[]",
          "name": "amounts",
          "type": "uint256[]"
        }
      ],
      "name": "EthSplit",
      "type": "event"
    },
    {
      "anonymous": false,
      "inputs": [
        {
          "indexed": true,
          "internalType": "address",
          "name": "sender",
          "type": "address"
        },
        {
          "indexed": false,
          "internalType": "uint256",
          "name": "totalAmount",
          "type": "uint256"
        },
        {
          "indexed": false,
          "internalType": "address payable[]",
          "name": "recipients",
          "type": "address[]"
        }
      ],
      "name": "EthSplitEqual",
      "type": "event"
    },
    {
      "anonymous": false,
      "inputs": [
        {
          "indexed": true,
          "internalType": "bytes32",
          "name": "role",
          "type": "bytes32"
        },
        {
          "indexed": true,
          "internalType": "bytes32",
          "name": "previousAdminRole",
          "type": "bytes32"
        },
        {
          "indexed": true,
          "internalType": "bytes32",
          "name": "newAdminRole",
          "type": "bytes32"
        }
      ],
      "name": "RoleAdminChanged",
      "type": "event"
    },
    {
      "anonymous": false,
      "inputs": [
        {
          "indexed": true,
          "internalType": "bytes32",
          "name": "role",
          "type": "bytes32"
        },
        {
          "indexed": true,
          "internalType": "address",
          "name": "account",
          "type": "address"
        },
        {
          "indexed": true,
          "internalType": "address",
          "name": "sender",
          "type": "address"
        }
      ],
      "name": "RoleGranted",
      "type": "event"
    },
    {
      "anonymous": false,
      "inputs": [
        {
          "indexed": true,
          "internalType": "bytes32",
          "name": "role",
          "type": "bytes32"
        },
        {
          "indexed": true,
          "internalType": "address",
          "name": "account",
          "type": "address"
        },
        {
          "indexed": true,
          "internalType": "address",
          "name": "sender",
          "type": "address"
        }
      ],
      "name": "RoleRevoked",
      "type": "event"
    },
    {
      "inputs": [],
      "name": "ADMIN_ROLE",
      "outputs": [
        {
          "internalType": "bytes32",
          "name": "",
          "type": "bytes32"
        }
      ],
      "stateMutability": "view",
      "type": "function"
    },
    {
      "inputs": [],
      "name": "DEFAULT_ADMIN_ROLE",
      "outputs": [
        {
          "internalType": "bytes32",
          "name": "",
          "type": "bytes32"
        }
      ],
      "stateMutability": "view",
      "type": "function"
    },
    {
      "inputs": [
        {
          "internalType": "address",
          "name": "_admin",
          "type": "address"
        }
      ],
      "name": "addAdmin",
      "outputs": [],
      "stateMutability": "nonpayable",
      "type": "function"
    },
    {
      "inputs": [],
      "name": "ensContract",
      "outputs": [
        {
          "internalType": "contract ENSContract",
          "name": "",
          "type": "address"
        }
      ],
      "stateMutability": "view",
      "type": "function"
    },
    {
      "inputs": [
        {
          "internalType": "bytes32",
          "name": "role",
          "type": "bytes32"
        }
      ],
      "name": "getRoleAdmin",
      "outputs": [
        {
          "internalType": "bytes32",
          "name": "",
          "type": "bytes32"
        }
      ],
      "stateMutability": "view",
      "type": "function"
    },
    {
      "inputs": [
        {
          "internalType": "bytes32",
          "name": "role",
          "type": "bytes32"
        },
        {
          "internalType": "address",
          "name": "account",
          "type": "address"
        }
      ],
      "name": "grantRole",
      "outputs": [],
      "stateMutability": "nonpayable",
      "type": "function"
    },
    {
      "inputs": [
        {
          "internalType": "bytes32",
          "name": "role",
          "type": "bytes32"
        },
        {
          "internalType": "address",
          "name": "account",
          "type": "address"
        }
      ],
      "name": "hasRole",
      "outputs": [
        {
          "internalType": "bool",
          "name": "",
          "type": "bool"
        }
      ],
      "stateMutability": "view",
      "type": "function"
    },
    {
      "inputs": [
        {
          "internalType": "address",
          "name": "_admin",
          "type": "address"
        }
      ],
      "name": "removeAdmin",
      "outputs": [],
      "stateMutability": "nonpayable",
      "type": "function"
    },
    {
      "inputs": [
        {
          "internalType": "bytes32",
          "name": "role",
          "type": "bytes32"
        },
        {
          "internalType": "address",
          "name": "account",
          "type": "address"
        }
      ],
      "name": "renounceRole",
      "outputs": [],
      "stateMutability": "nonpayable",
      "type": "function"
    },
    {
      "inputs": [
        {
          "internalType": "bytes32",
          "name": "role",
          "type": "bytes32"
        },
        {
          "internalType": "address",
          "name": "account",
          "type": "address"
        }
      ],
      "name": "revokeRole",
      "outputs": [],
      "stateMutability": "nonpayable",
      "type": "function"
    },
    {
      "inputs": [
        {
          "internalType": "string",
          "name": "_newName",
          "type": "string"
        }
      ],
      "name": "setName",
      "outputs": [],
      "stateMutability": "nonpayable",
      "type": "function"
    },
    {
      "inputs": [
        {
          "internalType": "contract IERC20",
          "name": "token",
          "type": "address"
        },
        {
          "internalType": "address payable[]",
          "name": "recipients",
          "type": "address[]"
        },
        {
          "internalType": "uint256[]",
          "name": "amounts",
          "type": "uint256[]"
        }
      ],
      "name": "splitERC20",
      "outputs": [],
      "stateMutability": "nonpayable",
      "type": "function"
    },
    {
      "inputs": [
        {
          "internalType": "address payable[]",
          "name": "recipients",
          "type": "address[]"
        },
        {
          "internalType": "uint256[]",
          "name": "amounts",
          "type": "uint256[]"
        }
      ],
      "name": "splitETH",
      "outputs": [],
      "stateMutability": "payable",
      "type": "function"
    },
    {
      "inputs": [
        {
          "internalType": "contract IERC20",
          "name": "token",
          "type": "address"
        },
        {
          "internalType": "address payable[]",
          "name": "recipients",
          "type": "address[]"
        },
        {
          "internalType": "uint256",
          "name": "totalAmount",
          "type": "uint256"
        }
      ],
      "name": "splitEqualERC20",
      "outputs": [],
      "stateMutability": "nonpayable",
      "type": "function"
    },
    {
      "inputs": [
        {
          "internalType": "address payable[]",
          "name": "recipients",
          "type": "address[]"
        }
      ],
      "name": "splitEqualETH",
      "outputs": [],
      "stateMutability": "payable",
      "type": "function"
    },
    {
      "inputs": [
        {
          "internalType": "bytes4",
          "name": "interfaceId",
          "type": "bytes4"
        }
      ],
      "name": "supportsInterface",
      "outputs": [
        {
          "internalType": "bool",
          "name": "",
          "type": "bool"
        }
      ],
      "stateMutability": "view",
      "type": "function"
    },
    {
      "inputs": [
        {
          "internalType": "contract IERC20",
          "name": "token",
          "type": "address"
        }
      ],
      "name": "withdraw",
      "outputs": [],
      "stateMutability": "nonpayable",
      "type": "function"
    },
    {
      "stateMutability": "payable",
      "type": "receive"
    }
  ],
  "transactionHash": "0x77705c418185c0d85d1a01426588ad567edb5c78074e8ec4ae2fcac919ee7424",
  "args": [
    "0x133d3455598978aB31D17027e6b7f3e88babF5CD"
  ],
  "numDeployments": 1,
  "solcInputHash": "4c0aaced199ffd2f2f891924a452ba42",
  "bytecode": "0x60a060405273a58e81fe9b61b5c3fe2afd33cf304c454abfc7cb6080523480156200002957600080fd5b5060405162001df338038062001df38339810160408190526200004c916200012a565b600160009081556200005f908262000092565b6200008b7fa49807205ce4d355092ef5a8a18f56e8913cf4a201fbe287825b095693c217758262000092565b506200015c565b6200009e8282620000a2565b5050565b60008281526001602090815260408083206001600160a01b038516845290915290205460ff166200009e5760008281526001602081815260408084206001600160a01b0386168086529252808420805460ff19169093179092559051339285917f2f8788117e7eff1d82e926ec794901d17c78024a50270940304540a733656f0d9190a45050565b6000602082840312156200013d57600080fd5b81516001600160a01b03811681146200015557600080fd5b9392505050565b608051611c746200017f600039600081816102290152610c240152611c746000f3fe6080604052600436106101025760003560e01c80636f949ad01161009557806391d148541161006457806391d14854146102d8578063a217fddf146102f8578063a6471e141461030d578063c47f00271461032d578063d547741f1461034d57600080fd5b80636f949ad014610263578063704802751461027657806375b238fc1461029657806382a86d9e146102b857600080fd5b80632f2ff15d116100d15780632f2ff15d146101b757806336568abe146101d757806351cff8d9146101f75780636881e7631461021757600080fd5b806301ffc9a71461010e5780630b1034b1146101435780631785f53c14610158578063248a9ca31461017857600080fd5b3661010957005b600080fd5b34801561011a57600080fd5b5061012e6101293660046115b8565b61036d565b60405190151581526020015b60405180910390f35b61015661015136600461162e565b6103a4565b005b34801561016457600080fd5b50610156610173366004611685565b610594565b34801561018457600080fd5b506101a96101933660046116a2565b6000908152600160208190526040909120015490565b60405190815260200161013a565b3480156101c357600080fd5b506101566101d23660046116bb565b6105e4565b3480156101e357600080fd5b506101566101f23660046116bb565b61060f565b34801561020357600080fd5b50610156610212366004611685565b61068e565b34801561022357600080fd5b5061024b7f000000000000000000000000000000000000000000000000000000000000000081565b6040516001600160a01b03909116815260200161013a565b6101566102713660046116eb565b610820565b34801561028257600080fd5b50610156610291366004611685565b61093e565b3480156102a257600080fd5b506101a9600080516020611c1f83398151915281565b3480156102c457600080fd5b506101566102d3366004611757565b61098b565b3480156102e457600080fd5b5061012e6102f33660046116bb565b610a2f565b34801561030457600080fd5b506101a9600081565b34801561031957600080fd5b506101566103283660046117da565b610a5a565b34801561033957600080fd5b5061015661034836600461184c565b610bd8565b34801561035957600080fd5b506101566103683660046116bb565b610c87565b60006001600160e01b03198216637965db0b60e01b148061039e57506301ffc9a760e01b6001600160e01b03198316145b92915050565b6103ac610cad565b6103c4600080516020611c1f83398151915233610a2f565b6103e157604051636209c08b60e01b815260040160405180910390fd5b348160006103ef8284611929565b905060006103fd838561193d565b905060198311156104215760405163393f616160e01b815260040160405180910390fd5b60005b8381101561053c57600087878381811061044057610440611951565b90506020020160208101906104559190611685565b6001600160a01b03160361047c5760405163290802d360e11b815260040160405180910390fd5b826000829003610493576104908382611967565b90505b60008888848181106104a7576104a7611951565b90506020020160208101906104bc9190611685565b6001600160a01b031682614e2090604051600060405180830381858888f193505050503d806000811461050b576040519150601f19603f3d011682016040523d82523d6000602084013e610510565b606091505b505090508061053257604051631fa55c0760e11b815260040160405180910390fd5b5050600101610424565b50336001600160a01b03167f87f1eb586b0382990a8813b3bf1c9381de2d895114d7d2fc3277ccc737bcefcd34888860405161057a939291906119c3565b60405180910390a2505050506105906001600055565b5050565b6105ac600080516020611c1f83398151915233610a2f565b6105c957604051636209c08b60e01b815260040160405180910390fd5b6105e1600080516020611c1f83398151915282610c87565b50565b6000828152600160208190526040909120015461060081610d06565b61060a8383610d10565b505050565b6001600160a01b03811633146106845760405162461bcd60e51b815260206004820152602f60248201527f416363657373436f6e74726f6c3a2063616e206f6e6c792072656e6f756e636560448201526e103937b632b9903337b91039b2b63360891b60648201526084015b60405180910390fd5b6105908282610d7b565b6106a6600080516020611c1f83398151915233610a2f565b6106c357604051636209c08b60e01b815260040160405180910390fd5b6001600160a01b03811661073f576040516000903390614e2090479084818181858888f193505050503d8060008114610718576040519150601f19603f3d011682016040523d82523d6000602084013e61071d565b606091505b505090508061059057604051631fa55c0760e11b815260040160405180910390fd5b6040516370a0823160e01b81523060048201526001600160a01b0382169063a9059cbb90339083906370a0823190602401602060405180830381865afa15801561078d573d6000803e3d6000fd5b505050506040513d601f19601f820116820180604052508101906107b191906119e6565b6040516001600160e01b031960e085901b1681526001600160a01b03909216600483015260248201526044016020604051808303816000875af11580156107fc573d6000803e3d6000fd5b505050506040513d601f19601f8201168201806040525081019061059091906119ff565b610828610cad565b610840600080516020611c1f83398151915233610a2f565b61085d57604051636209c08b60e01b815260040160405180910390fd5b600061086c8585858534610de2565b9050336001600160a01b03167fce4a1ba06513226cf23618c48cd2a2d391b00be6079ac669924fa0218cca152b34878787876040516108af959493929190611a53565b60405180910390a2801561092d576040516000903390614e2090849084818181858888f193505050503d8060008114610904576040519150601f19603f3d011682016040523d82523d6000602084013e610909565b606091505b505090508061092b57604051631fa55c0760e11b815260040160405180910390fd5b505b506109386001600055565b50505050565b610956600080516020611c1f83398151915233610a2f565b61097357604051636209c08b60e01b815260040160405180910390fd5b6105e1600080516020611c1f833981519152826105e4565b610993610cad565b6109ab600080516020611c1f83398151915233610a2f565b6109c857604051636209c08b60e01b815260040160405180910390fd5b6109d58585858585610fb9565b336001600160a01b03167f4114dcfe2aaaf6aa4f0734763cbe121058528a2e296173d8a63900e13966e064858585858a604051610a16959493929190611a80565b60405180910390a2610a286001600055565b5050505050565b60009182526001602090815260408084206001600160a01b0393909316845291905290205460ff1690565b610a62610cad565b610a7a600080516020611c1f83398151915233610a2f565b610a9757604051636209c08b60e01b815260040160405180910390fd5b816019811115610aba5760405163393f616160e01b815260040160405180910390fd5b6000610ac68284611929565b90506000610ad4838561193d565b905060005b83811015610b83576000878783818110610af557610af5611951565b9050602002016020810190610b0a9190611685565b6001600160a01b031603610b315760405163290802d360e11b815260040160405180910390fd5b826000829003610b4857610b458382611967565b90505b610b7a89338a8a86818110610b5f57610b5f611951565b9050602002016020810190610b749190611685565b846110eb565b50600101610ad9565b50336001600160a01b03167f76a95c273288c88de8fb190aa9eb3e12866d73a32acf083fa4642a89b7fa523d8588888b604051610bc39493929190611ac2565b60405180910390a25050506109386001600055565b610bf0600080516020611c1f83398151915233610a2f565b610c0d57604051636209c08b60e01b815260040160405180910390fd5b60405163c47f002760e01b81526001600160a01b037f0000000000000000000000000000000000000000000000000000000000000000169063c47f002790610c59908490600401611b19565b600060405180830381600087803b158015610c7357600080fd5b505af1158015610a28573d6000803e3d6000fd5b60008281526001602081905260409091200154610ca381610d06565b61060a8383610d7b565b600260005403610cff5760405162461bcd60e51b815260206004820152601f60248201527f5265656e7472616e637947756172643a207265656e7472616e742063616c6c00604482015260640161067b565b6002600055565b6105e18133611145565b610d1a8282610a2f565b6105905760008281526001602081815260408084206001600160a01b0386168086529252808420805460ff19169093179092559051339285917f2f8788117e7eff1d82e926ec794901d17c78024a50270940304540a733656f0d9190a45050565b610d858282610a2f565b156105905760008281526001602090815260408083206001600160a01b0385168085529252808320805460ff1916905551339285917ff6391f5c32d9c69d2a47ea670b442974b53935d1edc7fd64eb21e047a839171b9190a45050565b600084838114610e055760405163b68600c760e01b815260040160405180910390fd5b6019811115610e275760405163393f616160e01b815260040160405180910390fd5b6000805b82811015610fa2576000898983818110610e4757610e47611951565b9050602002016020810190610e5c9190611685565b6001600160a01b031603610e835760405163290802d360e11b815260040160405180910390fd5b868682818110610e9557610e95611951565b90506020020135600003610ebc57604051631161496d60e01b815260040160405180910390fd5b868682818110610ece57610ece611951565b9050602002013582610ee09190611967565b91506000898983818110610ef657610ef6611951565b9050602002016020810190610f0b9190611685565b6001600160a01b0316888884818110610f2657610f26611951565b90506020020135614e2090604051600060405180830381858888f193505050503d8060008114610f72576040519150601f19603f3d011682016040523d82523d6000602084013e610f77565b606091505b5050905080610f9957604051631fa55c0760e11b815260040160405180910390fd5b50600101610e2b565b50610fad8185611b4c565b98975050505050505050565b82818114610fda5760405163b68600c760e01b815260040160405180910390fd5b6019811115610ffc5760405163393f616160e01b815260040160405180910390fd5b60005b818110156110e257600086868381811061101b5761101b611951565b90506020020160208101906110309190611685565b6001600160a01b0316036110575760405163290802d360e11b815260040160405180910390fd5b83838281811061106957611069611951565b9050602002013560000361109057604051631161496d60e01b815260040160405180910390fd5b6110da87338888858181106110a7576110a7611951565b90506020020160208101906110bc9190611685565b8787868181106110ce576110ce611951565b905060200201356110eb565b600101610fff565b50505050505050565b604080516001600160a01b0385811660248301528416604482015260648082018490528251808303909101815260849091019091526020810180516001600160e01b03166323b872dd60e01b17905261093890859061119e565b61114f8282610a2f565b6105905761115c81611273565b611167836020611285565b604051602001611178929190611b5f565b60408051601f198184030181529082905262461bcd60e51b825261067b91600401611b19565b60006111f3826040518060400160405280602081526020017f5361666545524332303a206c6f772d6c6576656c2063616c6c206661696c6564815250856001600160a01b03166114289092919063ffffffff16565b905080516000148061121457508080602001905181019061121491906119ff565b61060a5760405162461bcd60e51b815260206004820152602a60248201527f5361666545524332303a204552433230206f7065726174696f6e20646964206e6044820152691bdd081cdd58d8d9595960b21b606482015260840161067b565b606061039e6001600160a01b03831660145b60606000611294836002611bd4565b61129f906002611967565b67ffffffffffffffff8111156112b7576112b7611836565b6040519080825280601f01601f1916602001820160405280156112e1576020820181803683370190505b509050600360fc1b816000815181106112fc576112fc611951565b60200101906001600160f81b031916908160001a905350600f60fb1b8160018151811061132b5761132b611951565b60200101906001600160f81b031916908160001a905350600061134f846002611bd4565b61135a906001611967565b90505b60018111156113d2576f181899199a1a9b1b9c1cb0b131b232b360811b85600f166010811061138e5761138e611951565b1a60f81b8282815181106113a4576113a4611951565b60200101906001600160f81b031916908160001a90535060049490941c936113cb81611beb565b905061135d565b5083156114215760405162461bcd60e51b815260206004820181905260248201527f537472696e67733a20686578206c656e67746820696e73756666696369656e74604482015260640161067b565b9392505050565b6060611437848460008561143f565b949350505050565b6060824710156114a05760405162461bcd60e51b815260206004820152602660248201527f416464726573733a20696e73756666696369656e742062616c616e636520666f6044820152651c8818d85b1b60d21b606482015260840161067b565b600080866001600160a01b031685876040516114bc9190611c02565b60006040518083038185875af1925050503d80600081146114f9576040519150601f19603f3d011682016040523d82523d6000602084013e6114fe565b606091505b509150915061150f8783838761151a565b979650505050505050565b60608315611589578251600003611582576001600160a01b0385163b6115825760405162461bcd60e51b815260206004820152601d60248201527f416464726573733a2063616c6c20746f206e6f6e2d636f6e7472616374000000604482015260640161067b565b5081611437565b611437838381511561159e5781518083602001fd5b8060405162461bcd60e51b815260040161067b9190611b19565b6000602082840312156115ca57600080fd5b81356001600160e01b03198116811461142157600080fd5b60008083601f8401126115f457600080fd5b50813567ffffffffffffffff81111561160c57600080fd5b6020830191508360208260051b850101111561162757600080fd5b9250929050565b6000806020838503121561164157600080fd5b823567ffffffffffffffff81111561165857600080fd5b611664858286016115e2565b90969095509350505050565b6001600160a01b03811681146105e157600080fd5b60006020828403121561169757600080fd5b813561142181611670565b6000602082840312156116b457600080fd5b5035919050565b600080604083850312156116ce57600080fd5b8235915060208301356116e081611670565b809150509250929050565b6000806000806040858703121561170157600080fd5b843567ffffffffffffffff8082111561171957600080fd5b611725888389016115e2565b9096509450602087013591508082111561173e57600080fd5b5061174b878288016115e2565b95989497509550505050565b60008060008060006060868803121561176f57600080fd5b853561177a81611670565b9450602086013567ffffffffffffffff8082111561179757600080fd5b6117a389838a016115e2565b909650945060408801359150808211156117bc57600080fd5b506117c9888289016115e2565b969995985093965092949392505050565b600080600080606085870312156117f057600080fd5b84356117fb81611670565b9350602085013567ffffffffffffffff81111561181757600080fd5b611823878288016115e2565b9598909750949560400135949350505050565b634e487b7160e01b600052604160045260246000fd5b60006020828403121561185e57600080fd5b813567ffffffffffffffff8082111561187657600080fd5b818401915084601f83011261188a57600080fd5b81358181111561189c5761189c611836565b604051601f8201601f19908116603f011681019083821181831017156118c4576118c4611836565b816040528281528760208487010111156118dd57600080fd5b826020860160208301376000928101602001929092525095945050505050565b634e487b7160e01b600052601260045260246000fd5b634e487b7160e01b600052601160045260246000fd5b600082611938576119386118fd565b500490565b60008261194c5761194c6118fd565b500690565b634e487b7160e01b600052603260045260246000fd5b8082018082111561039e5761039e611913565b8183526000602080850194508260005b858110156119b857813561199d81611670565b6001600160a01b03168752958201959082019060010161198a565b509495945050505050565b8381526040602082015260006119dd60408301848661197a565b95945050505050565b6000602082840312156119f857600080fd5b5051919050565b600060208284031215611a1157600080fd5b8151801515811461142157600080fd5b81835260006001600160fb1b03831115611a3a57600080fd5b8260051b80836020870137939093016020019392505050565b858152606060208201526000611a6d60608301868861197a565b8281036040840152610fad818587611a21565b606081526000611a9460608301878961197a565b8281036020840152611aa7818688611a21565b91505060018060a01b03831660408301529695505050505050565b848152606060208201526000611adc60608301858761197a565b905060018060a01b038316604083015295945050505050565b60005b83811015611b10578181015183820152602001611af8565b50506000910152565b6020815260008251806020840152611b38816040850160208701611af5565b601f01601f19169190910160400192915050565b8181038181111561039e5761039e611913565b7f416363657373436f6e74726f6c3a206163636f756e7420000000000000000000815260008351611b97816017850160208801611af5565b7001034b99036b4b9b9b4b733903937b6329607d1b6017918401918201528351611bc8816028840160208801611af5565b01602801949350505050565b808202811582820484141761039e5761039e611913565b600081611bfa57611bfa611913565b506000190190565b60008251611c14818460208701611af5565b919091019291505056fea49807205ce4d355092ef5a8a18f56e8913cf4a201fbe287825b095693c21775a264697066735822122005ba8c69a4dd0874ca7757e5f0c077e5fd3170a9c13532efeb0ab7272c88a73464736f6c63430008110033",
  "devdoc": {
    "details": "This is intended for research and development purposes only. Use this contract at your own risk and discretion.Based on https://split.buidlguidl.com/",
    "kind": "dev",
    "methods": {
      "getRoleAdmin(bytes32)": {
        "details": "Returns the admin role that controls `role`. See {grantRole} and {revokeRole}. To change a role's admin, use {_setRoleAdmin}."
      },
      "grantRole(bytes32,address)": {
        "details": "Grants `role` to `account`. If `account` had not been already granted `role`, emits a {RoleGranted} event. Requirements: - the caller must have ``role``'s admin role. May emit a {RoleGranted} event."
      },
      "hasRole(bytes32,address)": {
        "details": "Returns `true` if `account` has been granted `role`."
      },
      "renounceRole(bytes32,address)": {
        "details": "Revokes `role` from the calling account. Roles are often managed via {grantRole} and {revokeRole}: this function's purpose is to provide a mechanism for accounts to lose their privileges if they are compromised (such as when a trusted device is misplaced). If the calling account had been revoked `role`, emits a {RoleRevoked} event. Requirements: - the caller must be `account`. May emit a {RoleRevoked} event."
      },
      "revokeRole(bytes32,address)": {
        "details": "Revokes `role` from `account`. If `account` had been granted `role`, emits a {RoleRevoked} event. Requirements: - the caller must have ``role``'s admin role. May emit a {RoleRevoked} event."
      },
      "setName(string)": {
        "details": "only meant to be call on mainnet",
        "params": {
          "_newName": "The new ENS name for the contract"
        }
      },
      "splitERC20(address,address[],uint256[])": {
        "params": {
          "amounts": "The amounts each recipient shall receive",
          "recipients": "The recipients of the ERC20 tokens",
          "token": "The token to be shared amongst the recipients"
        }
      },
      "splitETH(address[],uint256[])": {
        "params": {
          "amounts": "The amounts each recipient shall receive",
          "recipients": "The recipients of the ETH"
        }
      },
      "splitEqualERC20(address,address[],uint256)": {
        "params": {
          "recipients": "The recipients of the ERC20 tokens",
          "token": "The token to be shared amongst the recipients",
          "totalAmount": "The total amount to be shared"
        }
      },
      "splitEqualETH(address[])": {
        "details": "The contract adds any leftover dust to the amount to be received by the first recipient in the input array.",
        "params": {
          "recipients": "The recipients of the ETH"
        }
      },
      "supportsInterface(bytes4)": {
        "details": "See {IERC165-supportsInterface}."
      },
      "withdraw(address)": {
        "params": {
          "token": "The address of the ERC20 token, or 0 for ETH"
        }
      }
    },
    "title": "BGGrants",
    "version": 1
  },
  "userdoc": {
    "kind": "user",
    "methods": {
      "constructor": {
        "notice": "The constructor sets the owner of the contract"
      },
      "setName(string)": {
        "notice": "Set the reverse ENS name for the contract"
      },
      "splitERC20(address,address[],uint256[])": {
        "notice": "Splits the ERC20 tokens amongst the given recipients, according to the specified amounts"
      },
      "splitETH(address[],uint256[])": {
        "notice": "Splits the ETH amongst the given recipients, according to the specified amounts"
      },
      "splitEqualERC20(address,address[],uint256)": {
        "notice": "Splits the ERC20 tokens equally amongst the given recipients"
      },
      "splitEqualETH(address[])": {
        "notice": "Splits the ETH equally amongst the given recipients"
      },
      "withdraw(address)": {
        "notice": "Withdraws the remaining ETH or ERC20 tokens to the owner's address"
      }
    },
    "notice": "A smart contract to split ETH or ERC20 tokens between multiple recipients.",
    "version": 1
  },
  "storageLayout": {
    "storage": [
      {
        "astId": 399,
        "contract": "contracts/BGGrants.sol:BGGrants",
        "label": "_status",
        "offset": 0,
        "slot": "0",
        "type": "t_uint256"
      },
      {
        "astId": 24,
        "contract": "contracts/BGGrants.sol:BGGrants",
        "label": "_roles",
        "offset": 0,
        "slot": "1",
        "type": "t_mapping(t_bytes32,t_struct(RoleData)19_storage)"
      }
    ],
    "types": {
      "t_address": {
        "encoding": "inplace",
        "label": "address",
        "numberOfBytes": "20"
      },
      "t_bool": {
        "encoding": "inplace",
        "label": "bool",
        "numberOfBytes": "1"
      },
      "t_bytes32": {
        "encoding": "inplace",
        "label": "bytes32",
        "numberOfBytes": "32"
      },
      "t_mapping(t_address,t_bool)": {
        "encoding": "mapping",
        "key": "t_address",
        "label": "mapping(address => bool)",
        "numberOfBytes": "32",
        "value": "t_bool"
      },
      "t_mapping(t_bytes32,t_struct(RoleData)19_storage)": {
        "encoding": "mapping",
        "key": "t_bytes32",
        "label": "mapping(bytes32 => struct AccessControl.RoleData)",
        "numberOfBytes": "32",
        "value": "t_struct(RoleData)19_storage"
      },
      "t_struct(RoleData)19_storage": {
        "encoding": "inplace",
        "label": "struct AccessControl.RoleData",
        "members": [
          {
            "astId": 16,
            "contract": "contracts/BGGrants.sol:BGGrants",
            "label": "members",
            "offset": 0,
            "slot": "0",
            "type": "t_mapping(t_address,t_bool)"
          },
          {
            "astId": 18,
            "contract": "contracts/BGGrants.sol:BGGrants",
            "label": "adminRole",
            "offset": 0,
            "slot": "1",
            "type": "t_bytes32"
          }
        ],
        "numberOfBytes": "64"
      },
      "t_uint256": {
        "encoding": "inplace",
        "label": "uint256",
        "numberOfBytes": "32"
      }
    }
  }
}